{
  "_format": "hh-sol-artifact-1",
  "contractName": "CustomERC20",
  "sourceName": "contracts/CustomERC20.sol",
  "abi": [
    {
      "inputs": [
        {
          "internalType": "string",
          "name": "_name",
          "type": "string"
        },
        {
          "internalType": "string",
          "name": "_symbol",
          "type": "string"
        },
        {
          "internalType": "uint256",
          "name": "_initialSupply",
          "type": "uint256"
        },
        {
          "internalType": "uint256",
          "name": "_maxSupply",
          "type": "uint256"
        },
        {
          "internalType": "bool",
          "name": "_isMintAllowed",
          "type": "bool"
        },
        {
          "internalType": "bool",
          "name": "_isBurnAllowed",
          "type": "bool"
        },
        {
          "components": [
            {
              "internalType": "bool",
              "name": "isTaxed",
              "type": "bool"
            },
            {
              "internalType": "uint256",
              "name": "taxPercentage",
              "type": "uint256"
            },
            {
              "internalType": "bool",
              "name": "shouldBurnTax",
              "type": "bool"
            }
          ],
          "internalType": "struct DataTypes.TaxVars",
          "name": "_taxVars",
          "type": "tuple"
        },
        {
          "internalType": "address",
          "name": "_owner",
          "type": "address"
        }
      ],
      "stateMutability": "nonpayable",
      "type": "constructor"
    },
    {
      "anonymous": false,
      "inputs": [
        {
          "indexed": true,
          "internalType": "address",
          "name": "owner",
          "type": "address"
        },
        {
          "indexed": true,
          "internalType": "address",
          "name": "spender",
          "type": "address"
        },
        {
          "indexed": false,
          "internalType": "uint256",
          "name": "value",
          "type": "uint256"
        }
      ],
      "name": "Approval",
      "type": "event"
    },
    {
      "anonymous": false,
      "inputs": [
        {
          "indexed": true,
          "internalType": "address",
          "name": "from",
          "type": "address"
        },
        {
          "indexed": true,
          "internalType": "address",
          "name": "to",
          "type": "address"
        },
        {
          "indexed": false,
          "internalType": "uint256",
          "name": "value",
          "type": "uint256"
        }
      ],
      "name": "Transfer",
      "type": "event"
    },
    {
      "inputs": [
        {
          "internalType": "address",
          "name": "owner",
          "type": "address"
        },
        {
          "internalType": "address",
          "name": "spender",
          "type": "address"
        }
      ],
      "name": "allowance",
      "outputs": [
        {
          "internalType": "uint256",
          "name": "",
          "type": "uint256"
        }
      ],
      "stateMutability": "view",
      "type": "function"
    },
    {
      "inputs": [
        {
          "internalType": "address",
          "name": "spender",
          "type": "address"
        },
        {
          "internalType": "uint256",
          "name": "amount",
          "type": "uint256"
        }
      ],
      "name": "approve",
      "outputs": [
        {
          "internalType": "bool",
          "name": "",
          "type": "bool"
        }
      ],
      "stateMutability": "nonpayable",
      "type": "function"
    },
    {
      "inputs": [
        {
          "internalType": "address",
          "name": "account",
          "type": "address"
        }
      ],
      "name": "balanceOf",
      "outputs": [
        {
          "internalType": "uint256",
          "name": "",
          "type": "uint256"
        }
      ],
      "stateMutability": "view",
      "type": "function"
    },
    {
      "inputs": [
        {
          "internalType": "uint256",
          "name": "amount",
          "type": "uint256"
        }
      ],
      "name": "burn",
      "outputs": [],
      "stateMutability": "nonpayable",
      "type": "function"
    },
    {
      "inputs": [
        {
          "internalType": "address",
          "name": "account",
          "type": "address"
        },
        {
          "internalType": "uint256",
          "name": "amount",
          "type": "uint256"
        }
      ],
      "name": "burnFrom",
      "outputs": [],
      "stateMutability": "nonpayable",
      "type": "function"
    },
    {
      "inputs": [],
      "name": "decimals",
      "outputs": [
        {
          "internalType": "uint8",
          "name": "",
          "type": "uint8"
        }
      ],
      "stateMutability": "view",
      "type": "function"
    },
    {
      "inputs": [
        {
          "internalType": "address",
          "name": "spender",
          "type": "address"
        },
        {
          "internalType": "uint256",
          "name": "subtractedValue",
          "type": "uint256"
        }
      ],
      "name": "decreaseAllowance",
      "outputs": [
        {
          "internalType": "bool",
          "name": "",
          "type": "bool"
        }
      ],
      "stateMutability": "nonpayable",
      "type": "function"
    },
    {
      "inputs": [
        {
          "internalType": "address",
          "name": "spender",
          "type": "address"
        },
        {
          "internalType": "uint256",
          "name": "addedValue",
          "type": "uint256"
        }
      ],
      "name": "increaseAllowance",
      "outputs": [
        {
          "internalType": "bool",
          "name": "",
          "type": "bool"
        }
      ],
      "stateMutability": "nonpayable",
      "type": "function"
    },
    {
      "inputs": [],
      "name": "initialSupply",
      "outputs": [
        {
          "internalType": "uint256",
          "name": "",
          "type": "uint256"
        }
      ],
      "stateMutability": "view",
      "type": "function"
    },
    {
      "inputs": [],
      "name": "isBurnAllowed",
      "outputs": [
        {
          "internalType": "bool",
          "name": "",
          "type": "bool"
        }
      ],
      "stateMutability": "view",
      "type": "function"
    },
    {
      "inputs": [],
      "name": "isMintAllowed",
      "outputs": [
        {
          "internalType": "bool",
          "name": "",
          "type": "bool"
        }
      ],
      "stateMutability": "view",
      "type": "function"
    },
    {
      "inputs": [],
      "name": "maxSupply",
      "outputs": [
        {
          "internalType": "uint256",
          "name": "",
          "type": "uint256"
        }
      ],
      "stateMutability": "view",
      "type": "function"
    },
    {
      "inputs": [
        {
          "internalType": "address",
          "name": "to",
          "type": "address"
        },
        {
          "internalType": "uint256",
          "name": "amount",
          "type": "uint256"
        }
      ],
      "name": "mint",
      "outputs": [],
      "stateMutability": "nonpayable",
      "type": "function"
    },
    {
      "inputs": [],
      "name": "name",
      "outputs": [
        {
          "internalType": "string",
          "name": "",
          "type": "string"
        }
      ],
      "stateMutability": "view",
      "type": "function"
    },
    {
      "inputs": [],
      "name": "owner",
      "outputs": [
        {
          "internalType": "address",
          "name": "",
          "type": "address"
        }
      ],
      "stateMutability": "view",
      "type": "function"
    },
    {
      "inputs": [],
      "name": "symbol",
      "outputs": [
        {
          "internalType": "string",
          "name": "",
          "type": "string"
        }
      ],
      "stateMutability": "view",
      "type": "function"
    },
    {
      "inputs": [],
      "name": "taxVars",
      "outputs": [
        {
          "internalType": "bool",
          "name": "isTaxed",
          "type": "bool"
        },
        {
          "internalType": "uint256",
          "name": "taxPercentage",
          "type": "uint256"
        },
        {
          "internalType": "bool",
          "name": "shouldBurnTax",
          "type": "bool"
        }
      ],
      "stateMutability": "view",
      "type": "function"
    },
    {
      "inputs": [],
      "name": "totalSupply",
      "outputs": [
        {
          "internalType": "uint256",
          "name": "",
          "type": "uint256"
        }
      ],
      "stateMutability": "view",
      "type": "function"
    },
    {
      "inputs": [
        {
          "internalType": "address",
          "name": "to",
          "type": "address"
        },
        {
          "internalType": "uint256",
          "name": "amount",
          "type": "uint256"
        }
      ],
      "name": "transfer",
      "outputs": [
        {
          "internalType": "bool",
          "name": "",
          "type": "bool"
        }
      ],
      "stateMutability": "nonpayable",
      "type": "function"
    },
    {
      "inputs": [
        {
          "internalType": "address",
          "name": "from",
          "type": "address"
        },
        {
          "internalType": "address",
          "name": "to",
          "type": "address"
        },
        {
          "internalType": "uint256",
          "name": "amount",
          "type": "uint256"
        }
      ],
      "name": "transferFrom",
      "outputs": [
        {
          "internalType": "bool",
          "name": "",
          "type": "bool"
        }
      ],
      "stateMutability": "nonpayable",
      "type": "function"
    }
  ],
  "bytecode": "0x60806040526000196008553480156200001757600080fd5b50604051620014bb380380620014bb8339810160408190526200003a916200037d565b8751889088906200005390600390602085019062000214565b5080516200006990600490602084019062000214565b505060016005555085851015620000c75760405162461bcd60e51b815260206004820181905260248201527f4d41585f535550504c595f4c4553535f5448414e5f494e49545f535550504c5960448201526064015b60405180910390fd5b600786905560088590556009805461ffff191685151561ff00191617610100851515021790558151600a805460ff199081169215159290921790556020830151600b556040830151600c8054909216901515179055600680546001600160a01b0319166001600160a01b03831617905562000143818762000151565b50505050505050506200055d565b6001600160a01b038216620001a95760405162461bcd60e51b815260206004820152601f60248201527f45524332303a206d696e7420746f20746865207a65726f2061646472657373006044820152606401620000be565b8060026000828254620001bd9190620004e3565b90915550506001600160a01b038216600081815260208181526040808320805486019055518481527fddf252ad1be2c89b69c2b068fc378daa952ba7f163c4a11628f55a4df523b3ef910160405180910390a35050565b82805462000222906200050a565b90600052602060002090601f01602090048101928262000246576000855562000291565b82601f106200026157805160ff191683800117855562000291565b8280016001018555821562000291579182015b828111156200029157825182559160200191906001019062000274565b506200029f929150620002a3565b5090565b5b808211156200029f5760008155600101620002a4565b80516001600160a01b0381168114620002d257600080fd5b919050565b80518015158114620002d257600080fd5b600082601f830112620002fa57600080fd5b81516001600160401b0381111562000316576200031662000547565b60206200032c601f8301601f19168201620004b0565b82815285828487010111156200034157600080fd5b60005b838110156200036157858101830151828201840152820162000344565b83811115620003735760008385840101525b5095945050505050565b600080600080600080600080888a036101408112156200039c57600080fd5b89516001600160401b0380821115620003b457600080fd5b620003c28d838e01620002e8565b9a5060208c0151915080821115620003d957600080fd5b50620003e88c828d01620002e8565b98505060408a0151965060608a015195506200040760808b01620002d7565b94506200041760a08b01620002d7565b9350606060bf19820112156200042c57600080fd5b506200043762000485565b6200044560c08b01620002d7565b815260e08a01516020820152620004606101008b01620002d7565b60408201529150620004766101208a01620002ba565b90509295985092959890939650565b604051606081016001600160401b0381118282101715620004aa57620004aa62000547565b60405290565b604051601f8201601f191681016001600160401b0381118282101715620004db57620004db62000547565b604052919050565b600082198211156200050557634e487b7160e01b600052601160045260246000fd5b500190565b600181811c908216806200051f57607f821691505b602082108114156200054157634e487b7160e01b600052602260045260246000fd5b50919050565b634e487b7160e01b600052604160045260246000fd5b610f4e806200056d6000396000f3fe608060405234801561001057600080fd5b506004361061012c5760003560e01c806370a08231116100ad578063a9059cbb11610071578063a9059cbb1461029f578063d5abeb01146102b2578063d9caea76146102bb578063dd62ed3e146102cd578063fbee07e7146102e057600080fd5b806370a082311461021d57806379cc6790146102465780638da5cb5b1461025957806395d89b4114610284578063a457c2d71461028c57600080fd5b8063313ce567116100f4578063313ce567146101ca578063378dc3dc146101d957806339509351146101e257806340c10f19146101f557806342966c681461020a57600080fd5b8063044a389d1461013157806306fdde031461016d578063095ea7b31461018257806318160ddd146101a557806323b872dd146101b7575b600080fd5b600a54600b54600c546101499260ff90811692911683565b60408051931515845260208401929092521515908201526060015b60405180910390f35b6101756102ed565b6040516101649190610e19565b610195610190366004610dd6565b61037f565b6040519015158152602001610164565b6002545b604051908152602001610164565b6101956101c5366004610d9a565b610397565b60405160128152602001610164565b6101a960075481565b6101956101f0366004610dd6565b6103bb565b610208610203366004610dd6565b6103dd565b005b610208610218366004610e00565b6104e7565b6101a961022b366004610d45565b6001600160a01b031660009081526020819052604090205490565b610208610254366004610dd6565b61053e565b60065461026c906001600160a01b031681565b6040516001600160a01b039091168152602001610164565b61017561059d565b61019561029a366004610dd6565b6105ac565b6101956102ad366004610dd6565b610627565b6101a960085481565b60095461019590610100900460ff1681565b6101a96102db366004610d67565b610635565b6009546101959060ff1681565b6060600380546102fc90610ec7565b80601f016020809104026020016040519081016040528092919081815260200182805461032890610ec7565b80156103755780601f1061034a57610100808354040283529160200191610375565b820191906000526020600020905b81548152906001019060200180831161035857829003601f168201915b5050505050905090565b60003361038d818585610660565b5060019392505050565b6000336103a5858285610784565b6103b08585856107fe565b506001949350505050565b60003361038d8185856103ce8383610635565b6103d89190610e6e565b610660565b6006546001600160a01b0316331461042f5760405162461bcd60e51b815260206004820152601060248201526f21a0a62622a92fa727aa2fa7aba722a960811b60448201526064015b60405180910390fd5b60095460ff166104745760405162461bcd60e51b815260206004820152601060248201526f1352539517d393d517d0531313d5d15160821b6044820152606401610426565b6008548161048160025490565b61048b9190610e6e565b11156104d95760405162461bcd60e51b815260206004820152601860248201527f4d494e545f455843454544535f4d41585f53555550504c5900000000000000006044820152606401610426565b6104e3828261093a565b5050565b600954610100900460ff166105315760405162461bcd60e51b815260206004820152601060248201526f1095549397d393d517d0531313d5d15160821b6044820152606401610426565b61053b33826109f9565b50565b600954610100900460ff166105885760405162461bcd60e51b815260206004820152601060248201526f1095549397d393d517d0531313d5d15160821b6044820152606401610426565b610593823383610784565b6104e382826109f9565b6060600480546102fc90610ec7565b600033816105ba8286610635565b90508381101561061a5760405162461bcd60e51b815260206004820152602560248201527f45524332303a2064656372656173656420616c6c6f77616e63652062656c6f77604482015264207a65726f60d81b6064820152608401610426565b6103b08286868403610660565b60003361038d8185856107fe565b6001600160a01b03918216600090815260016020908152604080832093909416825291909152205490565b6001600160a01b0383166106c25760405162461bcd60e51b8152602060048201526024808201527f45524332303a20617070726f76652066726f6d20746865207a65726f206164646044820152637265737360e01b6064820152608401610426565b6001600160a01b0382166107235760405162461bcd60e51b815260206004820152602260248201527f45524332303a20617070726f766520746f20746865207a65726f206164647265604482015261737360f01b6064820152608401610426565b6001600160a01b0383811660008181526001602090815260408083209487168084529482529182902085905590518481527f8c5be1e5ebec7d5bd14f71427d1e84f3dd0314c0f7b2291e5b200ac8c7c3b925910160405180910390a3505050565b60006107908484610635565b905060001981146107f857818110156107eb5760405162461bcd60e51b815260206004820152601d60248201527f45524332303a20696e73756666696369656e7420616c6c6f77616e63650000006044820152606401610426565b6107f88484848403610660565b50505050565b610806610b2b565b600a5460ff166108205761081b838383610b85565b61092b565b600b54612710906108319083610ea8565b61083b9190610e86565b6108459082610e6e565b6001600160a01b03841660009081526020819052604090205410156108bb5760405162461bcd60e51b815260206004820152602660248201527f4572726f723a207472616e7366657220616d6f756e7420657863656564732062604482015265616c616e636560d01b6064820152608401610426565b600c5460ff16156108f8576108ed83612710600a60010154846108de9190610ea8565b6108e89190610e86565b6109f9565b61081b838383610b85565b6109208330612710600a60010154856109119190610ea8565b61091b9190610e86565b610b85565b61092b838383610b85565b6109356001600555565b505050565b6001600160a01b0382166109905760405162461bcd60e51b815260206004820152601f60248201527f45524332303a206d696e7420746f20746865207a65726f2061646472657373006044820152606401610426565b80600260008282546109a29190610e6e565b90915550506001600160a01b038216600081815260208181526040808320805486019055518481527fddf252ad1be2c89b69c2b068fc378daa952ba7f163c4a11628f55a4df523b3ef910160405180910390a35050565b6001600160a01b038216610a595760405162461bcd60e51b815260206004820152602160248201527f45524332303a206275726e2066726f6d20746865207a65726f206164647265736044820152607360f81b6064820152608401610426565b6001600160a01b03821660009081526020819052604090205481811015610acd5760405162461bcd60e51b815260206004820152602260248201527f45524332303a206275726e20616d6f756e7420657863656564732062616c616e604482015261636560f01b6064820152608401610426565b6001600160a01b0383166000818152602081815260408083208686039055600280548790039055518581529192917fddf252ad1be2c89b69c2b068fc378daa952ba7f163c4a11628f55a4df523b3ef910160405180910390a3505050565b60026005541415610b7e5760405162461bcd60e51b815260206004820152601f60248201527f5265656e7472616e637947756172643a207265656e7472616e742063616c6c006044820152606401610426565b6002600555565b6001600160a01b038316610be95760405162461bcd60e51b815260206004820152602560248201527f45524332303a207472616e736665722066726f6d20746865207a65726f206164604482015264647265737360d81b6064820152608401610426565b6001600160a01b038216610c4b5760405162461bcd60e51b815260206004820152602360248201527f45524332303a207472616e7366657220746f20746865207a65726f206164647260448201526265737360e81b6064820152608401610426565b6001600160a01b03831660009081526020819052604090205481811015610cc35760405162461bcd60e51b815260206004820152602660248201527f45524332303a207472616e7366657220616d6f756e7420657863656564732062604482015265616c616e636560d01b6064820152608401610426565b6001600160a01b03848116600081815260208181526040808320878703905593871680835291849020805487019055925185815290927fddf252ad1be2c89b69c2b068fc378daa952ba7f163c4a11628f55a4df523b3ef910160405180910390a36107f8565b80356001600160a01b0381168114610d4057600080fd5b919050565b600060208284031215610d5757600080fd5b610d6082610d29565b9392505050565b60008060408385031215610d7a57600080fd5b610d8383610d29565b9150610d9160208401610d29565b90509250929050565b600080600060608486031215610daf57600080fd5b610db884610d29565b9250610dc660208501610d29565b9150604084013590509250925092565b60008060408385031215610de957600080fd5b610df283610d29565b946020939093013593505050565b600060208284031215610e1257600080fd5b5035919050565b600060208083528351808285015260005b81811015610e4657858101830151858201604001528201610e2a565b81811115610e58576000604083870101525b50601f01601f1916929092016040019392505050565b60008219821115610e8157610e81610f02565b500190565b600082610ea357634e487b7160e01b600052601260045260246000fd5b500490565b6000816000190483118215151615610ec257610ec2610f02565b500290565b600181811c90821680610edb57607f821691505b60208210811415610efc57634e487b7160e01b600052602260045260246000fd5b50919050565b634e487b7160e01b600052601160045260246000fdfea26469706673582212202c937ca145cb95e0bc70928c224814dcf6bed6593c5d1967b2e15508656485ad64736f6c63430008070033",
  "linkReferences": {},
  "deployedLinkReferences": {}
}