{
  "_format": "hh-sol-artifact-1",
  "contractName": "CustomERC20",
  "sourceName": "contracts/CustomERC20.sol",
  "abi": [
    {
      "inputs": [
        {
          "internalType": "string",
          "name": "_name",
          "type": "string"
        },
        {
          "internalType": "string",
          "name": "_symbol",
          "type": "string"
        },
        {
          "internalType": "uint256",
          "name": "_initialSupply",
          "type": "uint256"
        },
        {
          "internalType": "uint256",
          "name": "_maxSupply",
          "type": "uint256"
        },
        {
          "internalType": "bool",
          "name": "_isMintAllowed",
          "type": "bool"
        },
        {
          "internalType": "bool",
          "name": "_isBurnAllowed",
          "type": "bool"
        },
        {
          "components": [
            {
              "internalType": "bool",
              "name": "isTaxed",
              "type": "bool"
            },
            {
              "internalType": "uint256",
              "name": "taxPercentage",
              "type": "uint256"
            },
            {
              "internalType": "bool",
              "name": "shouldBurnTax",
              "type": "bool"
            }
          ],
          "internalType": "struct DataTypes.TaxVars",
          "name": "_taxVars",
          "type": "tuple"
        },
        {
          "internalType": "address",
          "name": "_owner",
          "type": "address"
        }
      ],
      "stateMutability": "nonpayable",
      "type": "constructor"
    },
    {
      "anonymous": false,
      "inputs": [
        {
          "indexed": true,
          "internalType": "address",
          "name": "owner",
          "type": "address"
        },
        {
          "indexed": true,
          "internalType": "address",
          "name": "spender",
          "type": "address"
        },
        {
          "indexed": false,
          "internalType": "uint256",
          "name": "value",
          "type": "uint256"
        }
      ],
      "name": "Approval",
      "type": "event"
    },
    {
      "anonymous": false,
      "inputs": [
        {
          "indexed": true,
          "internalType": "address",
          "name": "from",
          "type": "address"
        },
        {
          "indexed": true,
          "internalType": "address",
          "name": "to",
          "type": "address"
        },
        {
          "indexed": false,
          "internalType": "uint256",
          "name": "value",
          "type": "uint256"
        }
      ],
      "name": "Transfer",
      "type": "event"
    },
    {
      "inputs": [
        {
          "internalType": "address",
          "name": "owner",
          "type": "address"
        },
        {
          "internalType": "address",
          "name": "spender",
          "type": "address"
        }
      ],
      "name": "allowance",
      "outputs": [
        {
          "internalType": "uint256",
          "name": "",
          "type": "uint256"
        }
      ],
      "stateMutability": "view",
      "type": "function"
    },
    {
      "inputs": [
        {
          "internalType": "address",
          "name": "spender",
          "type": "address"
        },
        {
          "internalType": "uint256",
          "name": "amount",
          "type": "uint256"
        }
      ],
      "name": "approve",
      "outputs": [
        {
          "internalType": "bool",
          "name": "",
          "type": "bool"
        }
      ],
      "stateMutability": "nonpayable",
      "type": "function"
    },
    {
      "inputs": [
        {
          "internalType": "address",
          "name": "account",
          "type": "address"
        }
      ],
      "name": "balanceOf",
      "outputs": [
        {
          "internalType": "uint256",
          "name": "",
          "type": "uint256"
        }
      ],
      "stateMutability": "view",
      "type": "function"
    },
    {
      "inputs": [
        {
          "internalType": "uint256",
          "name": "amount",
          "type": "uint256"
        }
      ],
      "name": "burn",
      "outputs": [],
      "stateMutability": "nonpayable",
      "type": "function"
    },
    {
      "inputs": [
        {
          "internalType": "address",
          "name": "account",
          "type": "address"
        },
        {
          "internalType": "uint256",
          "name": "amount",
          "type": "uint256"
        }
      ],
      "name": "burnFrom",
      "outputs": [],
      "stateMutability": "nonpayable",
      "type": "function"
    },
    {
      "inputs": [],
      "name": "decimals",
      "outputs": [
        {
          "internalType": "uint8",
          "name": "",
          "type": "uint8"
        }
      ],
      "stateMutability": "view",
      "type": "function"
    },
    {
      "inputs": [
        {
          "internalType": "address",
          "name": "spender",
          "type": "address"
        },
        {
          "internalType": "uint256",
          "name": "subtractedValue",
          "type": "uint256"
        }
      ],
      "name": "decreaseAllowance",
      "outputs": [
        {
          "internalType": "bool",
          "name": "",
          "type": "bool"
        }
      ],
      "stateMutability": "nonpayable",
      "type": "function"
    },
    {
      "inputs": [
        {
          "internalType": "address",
          "name": "spender",
          "type": "address"
        },
        {
          "internalType": "uint256",
          "name": "addedValue",
          "type": "uint256"
        }
      ],
      "name": "increaseAllowance",
      "outputs": [
        {
          "internalType": "bool",
          "name": "",
          "type": "bool"
        }
      ],
      "stateMutability": "nonpayable",
      "type": "function"
    },
    {
      "inputs": [
        {
          "internalType": "address",
          "name": "to",
          "type": "address"
        },
        {
          "internalType": "uint256",
          "name": "amount",
          "type": "uint256"
        }
      ],
      "name": "mint",
      "outputs": [],
      "stateMutability": "nonpayable",
      "type": "function"
    },
    {
      "inputs": [],
      "name": "name",
      "outputs": [
        {
          "internalType": "string",
          "name": "",
          "type": "string"
        }
      ],
      "stateMutability": "view",
      "type": "function"
    },
    {
      "inputs": [],
      "name": "symbol",
      "outputs": [
        {
          "internalType": "string",
          "name": "",
          "type": "string"
        }
      ],
      "stateMutability": "view",
      "type": "function"
    },
    {
      "inputs": [],
      "name": "totalSupply",
      "outputs": [
        {
          "internalType": "uint256",
          "name": "",
          "type": "uint256"
        }
      ],
      "stateMutability": "view",
      "type": "function"
    },
    {
      "inputs": [
        {
          "internalType": "address",
          "name": "to",
          "type": "address"
        },
        {
          "internalType": "uint256",
          "name": "amount",
          "type": "uint256"
        }
      ],
      "name": "transfer",
      "outputs": [
        {
          "internalType": "bool",
          "name": "",
          "type": "bool"
        }
      ],
      "stateMutability": "nonpayable",
      "type": "function"
    },
    {
      "inputs": [
        {
          "internalType": "address",
          "name": "from",
          "type": "address"
        },
        {
          "internalType": "address",
          "name": "to",
          "type": "address"
        },
        {
          "internalType": "uint256",
          "name": "amount",
          "type": "uint256"
        }
      ],
      "name": "transferFrom",
      "outputs": [
        {
          "internalType": "bool",
          "name": "",
          "type": "bool"
        }
      ],
      "stateMutability": "nonpayable",
      "type": "function"
    }
  ],
  "bytecode": "0x60806040526000196008553480156200001757600080fd5b50604051620013ea380380620013ea8339810160408190526200003a916200037d565b8751889088906200005390600390602085019062000214565b5080516200006990600490602084019062000214565b505060016005555085851015620000c75760405162461bcd60e51b815260206004820181905260248201527f4d41585f535550504c595f4c4553535f5448414e5f494e49545f535550504c5960448201526064015b60405180910390fd5b600786905560088590556009805461ffff191685151561ff00191617610100851515021790558151600a805460ff199081169215159290921790556020830151600b556040830151600c8054909216901515179055600680546001600160a01b0319166001600160a01b03831617905562000143818762000151565b50505050505050506200055d565b6001600160a01b038216620001a95760405162461bcd60e51b815260206004820152601f60248201527f45524332303a206d696e7420746f20746865207a65726f2061646472657373006044820152606401620000be565b8060026000828254620001bd9190620004e3565b90915550506001600160a01b038216600081815260208181526040808320805486019055518481527fddf252ad1be2c89b69c2b068fc378daa952ba7f163c4a11628f55a4df523b3ef910160405180910390a35050565b82805462000222906200050a565b90600052602060002090601f01602090048101928262000246576000855562000291565b82601f106200026157805160ff191683800117855562000291565b8280016001018555821562000291579182015b828111156200029157825182559160200191906001019062000274565b506200029f929150620002a3565b5090565b5b808211156200029f5760008155600101620002a4565b80516001600160a01b0381168114620002d257600080fd5b919050565b80518015158114620002d257600080fd5b600082601f830112620002fa57600080fd5b81516001600160401b0381111562000316576200031662000547565b60206200032c601f8301601f19168201620004b0565b82815285828487010111156200034157600080fd5b60005b838110156200036157858101830151828201840152820162000344565b83811115620003735760008385840101525b5095945050505050565b600080600080600080600080888a036101408112156200039c57600080fd5b89516001600160401b0380821115620003b457600080fd5b620003c28d838e01620002e8565b9a5060208c0151915080821115620003d957600080fd5b50620003e88c828d01620002e8565b98505060408a0151965060608a015195506200040760808b01620002d7565b94506200041760a08b01620002d7565b9350606060bf19820112156200042c57600080fd5b506200043762000485565b6200044560c08b01620002d7565b815260e08a01516020820152620004606101008b01620002d7565b60408201529150620004766101208a01620002ba565b90509295985092959890939650565b604051606081016001600160401b0381118282101715620004aa57620004aa62000547565b60405290565b604051601f8201601f191681016001600160401b0381118282101715620004db57620004db62000547565b604052919050565b600082198211156200050557634e487b7160e01b600052601160045260246000fd5b500190565b600181811c908216806200051f57607f821691505b602082108114156200054157634e487b7160e01b600052602260045260246000fd5b50919050565b634e487b7160e01b600052604160045260246000fd5b610e7d806200056d6000396000f3fe608060405234801561001057600080fd5b50600436106100ea5760003560e01c806342966c681161008c57806395d89b411161006657806395d89b41146101db578063a457c2d7146101e3578063a9059cbb146101f6578063dd62ed3e1461020957600080fd5b806342966c681461018c57806370a082311461019f57806379cc6790146101c857600080fd5b806323b872dd116100c857806323b872dd14610142578063313ce56714610155578063395093511461016457806340c10f191461017757600080fd5b806306fdde03146100ef578063095ea7b31461010d57806318160ddd14610130575b600080fd5b6100f761021c565b6040516101049190610d48565b60405180910390f35b61012061011b366004610d05565b6102ae565b6040519015158152602001610104565b6002545b604051908152602001610104565b610120610150366004610cc9565b6102c6565b60405160128152602001610104565b610120610172366004610d05565b6102ea565b61018a610185366004610d05565b61030c565b005b61018a61019a366004610d2f565b610416565b6101346101ad366004610c74565b6001600160a01b031660009081526020819052604090205490565b61018a6101d6366004610d05565b61046d565b6100f76104cc565b6101206101f1366004610d05565b6104db565b610120610204366004610d05565b610556565b610134610217366004610c96565b610564565b60606003805461022b90610df6565b80601f016020809104026020016040519081016040528092919081815260200182805461025790610df6565b80156102a45780601f10610279576101008083540402835291602001916102a4565b820191906000526020600020905b81548152906001019060200180831161028757829003601f168201915b5050505050905090565b6000336102bc81858561058f565b5060019392505050565b6000336102d48582856106b3565b6102df85858561072d565b506001949350505050565b6000336102bc8185856102fd8383610564565b6103079190610d9d565b61058f565b6006546001600160a01b0316331461035e5760405162461bcd60e51b815260206004820152601060248201526f21a0a62622a92fa727aa2fa7aba722a960811b60448201526064015b60405180910390fd5b60095460ff166103a35760405162461bcd60e51b815260206004820152601060248201526f1352539517d393d517d0531313d5d15160821b6044820152606401610355565b600854816103b060025490565b6103ba9190610d9d565b11156104085760405162461bcd60e51b815260206004820152601860248201527f4d494e545f455843454544535f4d41585f53555550504c5900000000000000006044820152606401610355565b6104128282610869565b5050565b600954610100900460ff166104605760405162461bcd60e51b815260206004820152601060248201526f1095549397d393d517d0531313d5d15160821b6044820152606401610355565b61046a3382610928565b50565b600954610100900460ff166104b75760405162461bcd60e51b815260206004820152601060248201526f1095549397d393d517d0531313d5d15160821b6044820152606401610355565b6104c28233836106b3565b6104128282610928565b60606004805461022b90610df6565b600033816104e98286610564565b9050838110156105495760405162461bcd60e51b815260206004820152602560248201527f45524332303a2064656372656173656420616c6c6f77616e63652062656c6f77604482015264207a65726f60d81b6064820152608401610355565b6102df828686840361058f565b6000336102bc81858561072d565b6001600160a01b03918216600090815260016020908152604080832093909416825291909152205490565b6001600160a01b0383166105f15760405162461bcd60e51b8152602060048201526024808201527f45524332303a20617070726f76652066726f6d20746865207a65726f206164646044820152637265737360e01b6064820152608401610355565b6001600160a01b0382166106525760405162461bcd60e51b815260206004820152602260248201527f45524332303a20617070726f766520746f20746865207a65726f206164647265604482015261737360f01b6064820152608401610355565b6001600160a01b0383811660008181526001602090815260408083209487168084529482529182902085905590518481527f8c5be1e5ebec7d5bd14f71427d1e84f3dd0314c0f7b2291e5b200ac8c7c3b925910160405180910390a3505050565b60006106bf8484610564565b90506000198114610727578181101561071a5760405162461bcd60e51b815260206004820152601d60248201527f45524332303a20696e73756666696369656e7420616c6c6f77616e63650000006044820152606401610355565b610727848484840361058f565b50505050565b610735610a5a565b600a5460ff1661074f5761074a838383610ab4565b61085a565b600b54612710906107609083610dd7565b61076a9190610db5565b6107749082610d9d565b6001600160a01b03841660009081526020819052604090205410156107ea5760405162461bcd60e51b815260206004820152602660248201527f4572726f723a207472616e7366657220616d6f756e7420657863656564732062604482015265616c616e636560d01b6064820152608401610355565b600c5460ff16156108275761081c83612710600a600101548461080d9190610dd7565b6108179190610db5565b610928565b61074a838383610ab4565b61084f8330612710600a60010154856108409190610dd7565b61084a9190610db5565b610ab4565b61085a838383610ab4565b6108646001600555565b505050565b6001600160a01b0382166108bf5760405162461bcd60e51b815260206004820152601f60248201527f45524332303a206d696e7420746f20746865207a65726f2061646472657373006044820152606401610355565b80600260008282546108d19190610d9d565b90915550506001600160a01b038216600081815260208181526040808320805486019055518481527fddf252ad1be2c89b69c2b068fc378daa952ba7f163c4a11628f55a4df523b3ef910160405180910390a35050565b6001600160a01b0382166109885760405162461bcd60e51b815260206004820152602160248201527f45524332303a206275726e2066726f6d20746865207a65726f206164647265736044820152607360f81b6064820152608401610355565b6001600160a01b038216600090815260208190526040902054818110156109fc5760405162461bcd60e51b815260206004820152602260248201527f45524332303a206275726e20616d6f756e7420657863656564732062616c616e604482015261636560f01b6064820152608401610355565b6001600160a01b0383166000818152602081815260408083208686039055600280548790039055518581529192917fddf252ad1be2c89b69c2b068fc378daa952ba7f163c4a11628f55a4df523b3ef910160405180910390a3505050565b60026005541415610aad5760405162461bcd60e51b815260206004820152601f60248201527f5265656e7472616e637947756172643a207265656e7472616e742063616c6c006044820152606401610355565b6002600555565b6001600160a01b038316610b185760405162461bcd60e51b815260206004820152602560248201527f45524332303a207472616e736665722066726f6d20746865207a65726f206164604482015264647265737360d81b6064820152608401610355565b6001600160a01b038216610b7a5760405162461bcd60e51b815260206004820152602360248201527f45524332303a207472616e7366657220746f20746865207a65726f206164647260448201526265737360e81b6064820152608401610355565b6001600160a01b03831660009081526020819052604090205481811015610bf25760405162461bcd60e51b815260206004820152602660248201527f45524332303a207472616e7366657220616d6f756e7420657863656564732062604482015265616c616e636560d01b6064820152608401610355565b6001600160a01b03848116600081815260208181526040808320878703905593871680835291849020805487019055925185815290927fddf252ad1be2c89b69c2b068fc378daa952ba7f163c4a11628f55a4df523b3ef910160405180910390a3610727565b80356001600160a01b0381168114610c6f57600080fd5b919050565b600060208284031215610c8657600080fd5b610c8f82610c58565b9392505050565b60008060408385031215610ca957600080fd5b610cb283610c58565b9150610cc060208401610c58565b90509250929050565b600080600060608486031215610cde57600080fd5b610ce784610c58565b9250610cf560208501610c58565b9150604084013590509250925092565b60008060408385031215610d1857600080fd5b610d2183610c58565b946020939093013593505050565b600060208284031215610d4157600080fd5b5035919050565b600060208083528351808285015260005b81811015610d7557858101830151858201604001528201610d59565b81811115610d87576000604083870101525b50601f01601f1916929092016040019392505050565b60008219821115610db057610db0610e31565b500190565b600082610dd257634e487b7160e01b600052601260045260246000fd5b500490565b6000816000190483118215151615610df157610df1610e31565b500290565b600181811c90821680610e0a57607f821691505b60208210811415610e2b57634e487b7160e01b600052602260045260246000fd5b50919050565b634e487b7160e01b600052601160045260246000fdfea2646970667358221220e3202a35225e60f3ce8154209e88501b9042d86141425568d93284b76bb43fac64736f6c63430008070033",
  "linkReferences": {},
  "deployedLinkReferences": {}
}