{
  "_format": "hh-sol-artifact-1",
  "contractName": "LaunchCoinApp",
  "sourceName": "contracts/LaunchCoinApp.sol",
  "abi": [
    {
      "inputs": [
        {
          "internalType": "address",
          "name": "tokenAddress",
          "type": "address"
        },
        {
          "internalType": "uint256",
          "name": "amount",
          "type": "uint256"
        },
        {
          "internalType": "address[]",
          "name": "users",
          "type": "address[]"
        }
      ],
      "name": "createAirdrop",
      "outputs": [],
      "stateMutability": "nonpayable",
      "type": "function"
    },
    {
      "inputs": [
        {
          "internalType": "address",
          "name": "tokenAddress",
          "type": "address"
        },
        {
          "internalType": "address",
          "name": "pairTokenAddress",
          "type": "address"
        }
      ],
      "name": "createPool",
      "outputs": [],
      "stateMutability": "nonpayable",
      "type": "function"
    },
    {
      "inputs": [
        {
          "internalType": "string",
          "name": "_image",
          "type": "string"
        },
        {
          "internalType": "string",
          "name": "_name",
          "type": "string"
        },
        {
          "internalType": "string",
          "name": "_symbol",
          "type": "string"
        },
        {
          "internalType": "uint256",
          "name": "_initialSupply",
          "type": "uint256"
        },
        {
          "internalType": "uint256",
          "name": "_maxSupply",
          "type": "uint256"
        },
        {
          "internalType": "bool",
          "name": "_isMintAllowed",
          "type": "bool"
        },
        {
          "internalType": "bool",
          "name": "_isBurnAllowed",
          "type": "bool"
        },
        {
          "components": [
            {
              "internalType": "bool",
              "name": "isTaxed",
              "type": "bool"
            },
            {
              "internalType": "uint256",
              "name": "taxPercentage",
              "type": "uint256"
            },
            {
              "internalType": "bool",
              "name": "shouldBurnTax",
              "type": "bool"
            }
          ],
          "internalType": "struct DataTypes.TaxVars",
          "name": "_taxVars",
          "type": "tuple"
        }
      ],
      "name": "createToken",
      "outputs": [],
      "stateMutability": "nonpayable",
      "type": "function"
    },
    {
      "inputs": [
        {
          "internalType": "address",
          "name": "tokenAddress",
          "type": "address"
        }
      ],
      "name": "getAllAirdropsForToken",
      "outputs": [
        {
          "components": [
            {
              "internalType": "address",
              "name": "tokenAddress",
              "type": "address"
            },
            {
              "internalType": "uint256",
              "name": "amount",
              "type": "uint256"
            },
            {
              "internalType": "uint256",
              "name": "timestamp",
              "type": "uint256"
            },
            {
              "internalType": "address[]",
              "name": "recieverAddresses",
              "type": "address[]"
            }
          ],
          "internalType": "struct DataTypes.AirdropInfo[]",
          "name": "",
          "type": "tuple[]"
        }
      ],
      "stateMutability": "view",
      "type": "function"
    },
    {
      "inputs": [
        {
          "internalType": "address",
          "name": "tokenAddress",
          "type": "address"
        }
      ],
      "name": "getAllPoolsForToken",
      "outputs": [
        {
          "components": [
            {
              "internalType": "address",
              "name": "tokenAddress",
              "type": "address"
            },
            {
              "internalType": "address",
              "name": "poolContractAddress",
              "type": "address"
            },
            {
              "internalType": "address",
              "name": "pairTokenAddress",
              "type": "address"
            }
          ],
          "internalType": "struct DataTypes.PoolInfo[]",
          "name": "",
          "type": "tuple[]"
        }
      ],
      "stateMutability": "view",
      "type": "function"
    },
    {
      "inputs": [
        {
          "internalType": "address",
          "name": "user",
          "type": "address"
        }
      ],
      "name": "getAllTokensForUser",
      "outputs": [
        {
          "components": [
            {
              "internalType": "string",
              "name": "image",
              "type": "string"
            },
            {
              "internalType": "string",
              "name": "name",
              "type": "string"
            },
            {
              "internalType": "string",
              "name": "symbol",
              "type": "string"
            },
            {
              "internalType": "address",
              "name": "contractAddress",
              "type": "address"
            }
          ],
          "internalType": "struct DataTypes.TokenInfo[]",
          "name": "",
          "type": "tuple[]"
        }
      ],
      "stateMutability": "view",
      "type": "function"
    }
  ],
  "bytecode": "0x608060405234801561001057600080fd5b506001600055612b68806100256000396000f3fe60806040523480156200001157600080fd5b50600436106200006a5760003560e01c80630a160e5c146200006f5780632bf83632146200008857806382de8fe914620000b7578063bea7419714620000dd578063d1fb5d7d1462000103578063e3433615146200011a575b600080fd5b620000866200008036600462001183565b62000131565b005b6200009f6200009936600462000ff8565b6200026c565b604051620000ae9190620013af565b60405180910390f35b620000ce620000c836600462000ff8565b620003d8565b604051620000ae919062001419565b620000f4620000ee36600462000ff8565b6200070f565b604051620000ae9190620012e9565b62000086620001143660046200107d565b620008e7565b620000866200012b3660046200103f565b62000be8565b60008787878787878733604051620001499062000dee565b6200015c989796959493929190620014d6565b604051809103906000f08015801562000179573d6000803e3d6000fd5b509050620001ac6001600081546200019190620015f9565b91829055503360009081526004602052604090209062000d3f565b50604080516080810182528a815260208082018b90528183018a90526001600160a01b0384166060830152600154600090815260078252929092208151805192939192620001fe928492019062000dfc565b50602082810151805162000219926001850192019062000dfc565b50604082015180516200023791600284019160209091019062000dfc565b5060609190910151600390910180546001600160a01b0319166001600160a01b03909216919091179055505050505050505050565b6001600160a01b038116600090815260056020526040812060609190620002939062000d56565b67ffffffffffffffff811115620002ae57620002ae62001639565b604051908082528060200260200182016040528015620002fb57816020015b6040805160608101825260008082526020808301829052928201528252600019909201910181620002cd5790505b50905060005b6001600160a01b0384166000908152600560205260409020620003249062000d56565b811015620003d1576001600160a01b03841660009081526005602052604081206008919062000354908462000d61565b81526020808201929092526040908101600020815160608101835281546001600160a01b0390811682526001830154811694820194909452600290910154909216908201528251839083908110620003b057620003b062001623565b60200260200101819052508080620003c890620015f9565b91505062000301565b5092915050565b6001600160a01b038116600090815260046020526040812060609190620003ff9062000d56565b67ffffffffffffffff8111156200041a576200041a62001639565b6040519080825280602002602001820160405280156200048257816020015b6200046e604051806080016040528060608152602001606081526020016060815260200160006001600160a01b031681525090565b815260200190600190039081620004395790505b50905060005b6001600160a01b0384166000908152600460205260409020620004ab9062000d56565b811015620003d1576001600160a01b038416600090815260046020526040812060079190620004db908462000d61565b81526020019081526020016000206040518060800160405290816000820180546200050690620015bc565b80601f01602080910402602001604051908101604052809291908181526020018280546200053490620015bc565b8015620005855780601f10620005595761010080835404028352916020019162000585565b820191906000526020600020905b8154815290600101906020018083116200056757829003601f168201915b50505050508152602001600182018054620005a090620015bc565b80601f0160208091040260200160405190810160405280929190818152602001828054620005ce90620015bc565b80156200061f5780601f10620005f3576101008083540402835291602001916200061f565b820191906000526020600020905b8154815290600101906020018083116200060157829003601f168201915b505050505081526020016002820180546200063a90620015bc565b80601f01602080910402602001604051908101604052809291908181526020018280546200066890620015bc565b8015620006b95780601f106200068d57610100808354040283529160200191620006b9565b820191906000526020600020905b8154815290600101906020018083116200069b57829003601f168201915b5050509183525050600391909101546001600160a01b03166020909101528251839083908110620006ee57620006ee62001623565b602002602001018190525080806200070690620015f9565b91505062000488565b6001600160a01b038116600090815260066020526040812060609190620007369062000d56565b67ffffffffffffffff81111562000751576200075162001639565b604051908082528060200260200182016040528015620007b957816020015b620007a5604051806080016040528060006001600160a01b031681526020016000815260200160008152602001606081525090565b815260200190600190039081620007705790505b50905060005b6001600160a01b0384166000908152600660205260409020620007e29062000d56565b811015620003d1576001600160a01b03841660009081526006602052604081206009919062000812908462000d61565b81526020808201929092526040908101600020815160808101835281546001600160a01b03168152600182015481850152600282015481840152600382018054845181870281018701909552808552919492936060860193909290830182828015620008a857602002820191906000526020600020905b81546001600160a01b0316815260019091019060200180831162000889575b505050505081525050828281518110620008c657620008c662001623565b60200260200101819052508080620008de90620015f9565b915050620007bf565b60005b815181101562000b2a57836001600160a01b03166323b872dd3384848151811062000919576200091962001623565b602002602001015185518762000930919062001599565b6040516001600160e01b031960e086901b1681526001600160a01b0393841660048201529290911660248301526044820152606401602060405180830381600087803b1580156200098057600080fd5b505af115801562000995573d6000803e3d6000fd5b505050506040513d601f19601f82011682018060405250810190620009bb919062001163565b5073b3971bcef2d791bc4027bbfedfb47319a4aaaaaa6001600160a01b031663ba3d69d77350bafc326eb1b2ddf86f26fa9970049a46c033ef84848151811062000a095762000a0962001623565b602002602001015160405160200162000ab190600360fc1b8152602b60f81b60018201819052600d60fa1b6002830152600382018190527052656365697665642041697264726f702160781b600483015260158201527f436f6e67726174756c6174696f6e7320796f75206a757374207265636569766560168201527f6420616e2061697264726f702066726f6d204c61756e6368436f696e00000000603682015260520190565b6040516020818303038152906040526040518463ffffffff1660e01b815260040162000ae093929190620012b2565b600060405180830381600087803b15801562000afb57600080fd5b505af115801562000b10573d6000803e3d6000fd5b50505050808062000b2190620015f9565b915050620008ea565b5062000b6460036000815462000b4090620015f9565b91829055506001600160a01b03851660009081526006602052604090209062000d3f565b50604080516080810182526001600160a01b038581168252602080830186815242848601908152606085018781526003805460009081526009865297909720865181546001600160a01b0319169616959095178555915160018501555160028401555180519394929362000be093850192919091019062000e8b565b505050505050565b60405163a167129560e01b81526001600160a01b03808416600483015282166024820152606460448201819052600091731f98431c8ad98523631ae4a59f267346ea31f9849163a16712959101602060405180830381600087803b15801562000c5057600080fd5b505af115801562000c65573d6000803e3d6000fd5b505050506040513d601f19601f8201168201806040525081019062000c8b91906200101f565b905062000cc660026000815462000ca290620015f9565b91829055506001600160a01b03851660009081526005602052604090209062000d3f565b50604080516060810182526001600160a01b0394851681529184166020808401918252938516838301908152600280546000908152600890965292909420925183549086166001600160a01b03199182161784559051600184018054918716918316919091179055925191018054919093169116179055565b600062000d4d838362000d6f565b90505b92915050565b600062000d50825490565b600062000d4d838362000dc1565b600081815260018301602052604081205462000db85750815460018181018455600084815260208082209093018490558454848252828601909352604090209190915562000d50565b50600062000d50565b600082600001828154811062000ddb5762000ddb62001623565b9060005260206000200154905092915050565b6114bb806200167883390190565b82805462000e0a90620015bc565b90600052602060002090601f01602090048101928262000e2e576000855562000e79565b82601f1062000e4957805160ff191683800117855562000e79565b8280016001018555821562000e79579182015b8281111562000e7957825182559160200191906001019062000e5c565b5062000e8792915062000ee3565b5090565b82805482825590600052602060002090810192821562000e79579160200282015b8281111562000e7957825182546001600160a01b0319166001600160a01b0390911617825560209092019160019091019062000eac565b5b8082111562000e87576000815560010162000ee4565b803562000f078162001668565b919050565b600082601f83011262000f1e57600080fd5b813567ffffffffffffffff81111562000f3b5762000f3b62001639565b62000f50601f8201601f191660200162001565565b81815284602083860101111562000f6657600080fd5b816020850160208301376000918101602001919091529392505050565b60006060828403121562000f9657600080fd5b6040516060810181811067ffffffffffffffff8211171562000fbc5762000fbc62001639565b604052905080823562000fcf8162001668565b815260208381013590820152604083013562000feb8162001668565b6040919091015292915050565b6000602082840312156200100b57600080fd5b813562001018816200164f565b9392505050565b6000602082840312156200103257600080fd5b815162001018816200164f565b600080604083850312156200105357600080fd5b823562001060816200164f565b9150602083013562001072816200164f565b809150509250929050565b6000806000606084860312156200109357600080fd5b8335620010a0816200164f565b92506020848101359250604085013567ffffffffffffffff80821115620010c657600080fd5b818701915087601f830112620010db57600080fd5b813581811115620010f057620010f062001639565b8060051b91506200110384830162001565565b8181528481019084860184860187018c10156200111f57600080fd5b600095505b838610156200115257803594506200113c856200164f565b8483526001959095019491860191860162001124565b508096505050505050509250925092565b6000602082840312156200117657600080fd5b8151620010188162001668565b600080600080600080600080610140898b031215620011a157600080fd5b883567ffffffffffffffff80821115620011ba57600080fd5b620011c88c838d0162000f0c565b995060208b0135915080821115620011df57600080fd5b620011ed8c838d0162000f0c565b985060408b01359150808211156200120457600080fd5b50620012138b828c0162000f0c565b96505060608901359450608089013593506200123260a08a0162000efa565b92506200124260c08a0162000efa565b9150620012538a60e08b0162000f83565b90509295985092959890939650565b6000815180845260005b818110156200128a576020818501810151868301820152016200126c565b818111156200129d576000602083870101525b50601f01601f19169290920160200192915050565b6001600160a01b03848116825283166020820152606060408201819052600090620012e09083018462001262565b95945050505050565b60006020808301818452808551808352604092508286019150828160051b8701018488016000805b84811015620013a057898403603f19018652825180516001600160a01b039081168652898201518a8701528882015189870152606091820151608092870183905280519287018390528a019160a087019185915b808310156200138957845182168452938c0193928c01926001929092019162001365565b505050968901969450509187019160010162001311565b50919998505050505050505050565b602080825282518282018190526000919060409081850190868401855b828110156200140c57815180516001600160a01b0390811686528782015181168887015290860151168585015260609093019290850190600101620013cc565b5091979650505050505050565b60006020808301818452808551808352604092508286019150828160051b87010184880160005b83811015620014c857603f19898403018552815160808151818652620014698287018262001262565b915050888201518582038a87015262001483828262001262565b91505087820151858203898701526200149d828262001262565b6060938401516001600160a01b03169690930195909552509487019492509086019060010162001440565b509098975050505050505050565b6000610140808352620014ec8184018c62001262565b9050828103602084015262001502818b62001262565b915050876040830152866060830152851515608083015284151560a08301528351151560c0830152602084015160e083015260408401511515610100830152620015586101208301846001600160a01b03169052565b9998505050505050505050565b604051601f8201601f1916810167ffffffffffffffff8111828210171562001591576200159162001639565b604052919050565b600082620015b757634e487b7160e01b600052601260045260246000fd5b500490565b600181811c90821680620015d157607f821691505b60208210811415620015f357634e487b7160e01b600052602260045260246000fd5b50919050565b60006000198214156200161c57634e487b7160e01b600052601160045260246000fd5b5060010190565b634e487b7160e01b600052603260045260246000fd5b634e487b7160e01b600052604160045260246000fd5b6001600160a01b03811681146200166557600080fd5b50565b80151581146200166557600080fdfe60806040526000196008553480156200001757600080fd5b50604051620014bb380380620014bb8339810160408190526200003a916200037d565b8751889088906200005390600390602085019062000214565b5080516200006990600490602084019062000214565b505060016005555085851015620000c75760405162461bcd60e51b815260206004820181905260248201527f4d41585f535550504c595f4c4553535f5448414e5f494e49545f535550504c5960448201526064015b60405180910390fd5b600786905560088590556009805461ffff191685151561ff00191617610100851515021790558151600a805460ff199081169215159290921790556020830151600b556040830151600c8054909216901515179055600680546001600160a01b0319166001600160a01b03831617905562000143818762000151565b50505050505050506200055d565b6001600160a01b038216620001a95760405162461bcd60e51b815260206004820152601f60248201527f45524332303a206d696e7420746f20746865207a65726f2061646472657373006044820152606401620000be565b8060026000828254620001bd9190620004e3565b90915550506001600160a01b038216600081815260208181526040808320805486019055518481527fddf252ad1be2c89b69c2b068fc378daa952ba7f163c4a11628f55a4df523b3ef910160405180910390a35050565b82805462000222906200050a565b90600052602060002090601f01602090048101928262000246576000855562000291565b82601f106200026157805160ff191683800117855562000291565b8280016001018555821562000291579182015b828111156200029157825182559160200191906001019062000274565b506200029f929150620002a3565b5090565b5b808211156200029f5760008155600101620002a4565b80516001600160a01b0381168114620002d257600080fd5b919050565b80518015158114620002d257600080fd5b600082601f830112620002fa57600080fd5b81516001600160401b0381111562000316576200031662000547565b60206200032c601f8301601f19168201620004b0565b82815285828487010111156200034157600080fd5b60005b838110156200036157858101830151828201840152820162000344565b83811115620003735760008385840101525b5095945050505050565b600080600080600080600080888a036101408112156200039c57600080fd5b89516001600160401b0380821115620003b457600080fd5b620003c28d838e01620002e8565b9a5060208c0151915080821115620003d957600080fd5b50620003e88c828d01620002e8565b98505060408a0151965060608a015195506200040760808b01620002d7565b94506200041760a08b01620002d7565b9350606060bf19820112156200042c57600080fd5b506200043762000485565b6200044560c08b01620002d7565b815260e08a01516020820152620004606101008b01620002d7565b60408201529150620004766101208a01620002ba565b90509295985092959890939650565b604051606081016001600160401b0381118282101715620004aa57620004aa62000547565b60405290565b604051601f8201601f191681016001600160401b0381118282101715620004db57620004db62000547565b604052919050565b600082198211156200050557634e487b7160e01b600052601160045260246000fd5b500190565b600181811c908216806200051f57607f821691505b602082108114156200054157634e487b7160e01b600052602260045260246000fd5b50919050565b634e487b7160e01b600052604160045260246000fd5b610f4e806200056d6000396000f3fe608060405234801561001057600080fd5b506004361061012c5760003560e01c806370a08231116100ad578063a9059cbb11610071578063a9059cbb1461029f578063d5abeb01146102b2578063d9caea76146102bb578063dd62ed3e146102cd578063fbee07e7146102e057600080fd5b806370a082311461021d57806379cc6790146102465780638da5cb5b1461025957806395d89b4114610284578063a457c2d71461028c57600080fd5b8063313ce567116100f4578063313ce567146101ca578063378dc3dc146101d957806339509351146101e257806340c10f19146101f557806342966c681461020a57600080fd5b8063044a389d1461013157806306fdde031461016d578063095ea7b31461018257806318160ddd146101a557806323b872dd146101b7575b600080fd5b600a54600b54600c546101499260ff90811692911683565b60408051931515845260208401929092521515908201526060015b60405180910390f35b6101756102ed565b6040516101649190610e19565b610195610190366004610dd6565b61037f565b6040519015158152602001610164565b6002545b604051908152602001610164565b6101956101c5366004610d9a565b610397565b60405160128152602001610164565b6101a960075481565b6101956101f0366004610dd6565b6103bb565b610208610203366004610dd6565b6103dd565b005b610208610218366004610e00565b6104e7565b6101a961022b366004610d45565b6001600160a01b031660009081526020819052604090205490565b610208610254366004610dd6565b61053e565b60065461026c906001600160a01b031681565b6040516001600160a01b039091168152602001610164565b61017561059d565b61019561029a366004610dd6565b6105ac565b6101956102ad366004610dd6565b610627565b6101a960085481565b60095461019590610100900460ff1681565b6101a96102db366004610d67565b610635565b6009546101959060ff1681565b6060600380546102fc90610ec7565b80601f016020809104026020016040519081016040528092919081815260200182805461032890610ec7565b80156103755780601f1061034a57610100808354040283529160200191610375565b820191906000526020600020905b81548152906001019060200180831161035857829003601f168201915b5050505050905090565b60003361038d818585610660565b5060019392505050565b6000336103a5858285610784565b6103b08585856107fe565b506001949350505050565b60003361038d8185856103ce8383610635565b6103d89190610e6e565b610660565b6006546001600160a01b0316331461042f5760405162461bcd60e51b815260206004820152601060248201526f21a0a62622a92fa727aa2fa7aba722a960811b60448201526064015b60405180910390fd5b60095460ff166104745760405162461bcd60e51b815260206004820152601060248201526f1352539517d393d517d0531313d5d15160821b6044820152606401610426565b6008548161048160025490565b61048b9190610e6e565b11156104d95760405162461bcd60e51b815260206004820152601860248201527f4d494e545f455843454544535f4d41585f53555550504c5900000000000000006044820152606401610426565b6104e3828261093a565b5050565b600954610100900460ff166105315760405162461bcd60e51b815260206004820152601060248201526f1095549397d393d517d0531313d5d15160821b6044820152606401610426565b61053b33826109f9565b50565b600954610100900460ff166105885760405162461bcd60e51b815260206004820152601060248201526f1095549397d393d517d0531313d5d15160821b6044820152606401610426565b610593823383610784565b6104e382826109f9565b6060600480546102fc90610ec7565b600033816105ba8286610635565b90508381101561061a5760405162461bcd60e51b815260206004820152602560248201527f45524332303a2064656372656173656420616c6c6f77616e63652062656c6f77604482015264207a65726f60d81b6064820152608401610426565b6103b08286868403610660565b60003361038d8185856107fe565b6001600160a01b03918216600090815260016020908152604080832093909416825291909152205490565b6001600160a01b0383166106c25760405162461bcd60e51b8152602060048201526024808201527f45524332303a20617070726f76652066726f6d20746865207a65726f206164646044820152637265737360e01b6064820152608401610426565b6001600160a01b0382166107235760405162461bcd60e51b815260206004820152602260248201527f45524332303a20617070726f766520746f20746865207a65726f206164647265604482015261737360f01b6064820152608401610426565b6001600160a01b0383811660008181526001602090815260408083209487168084529482529182902085905590518481527f8c5be1e5ebec7d5bd14f71427d1e84f3dd0314c0f7b2291e5b200ac8c7c3b925910160405180910390a3505050565b60006107908484610635565b905060001981146107f857818110156107eb5760405162461bcd60e51b815260206004820152601d60248201527f45524332303a20696e73756666696369656e7420616c6c6f77616e63650000006044820152606401610426565b6107f88484848403610660565b50505050565b610806610b2b565b600a5460ff166108205761081b838383610b85565b61092b565b600b54612710906108319083610ea8565b61083b9190610e86565b6108459082610e6e565b6001600160a01b03841660009081526020819052604090205410156108bb5760405162461bcd60e51b815260206004820152602660248201527f4572726f723a207472616e7366657220616d6f756e7420657863656564732062604482015265616c616e636560d01b6064820152608401610426565b600c5460ff16156108f8576108ed83612710600a60010154846108de9190610ea8565b6108e89190610e86565b6109f9565b61081b838383610b85565b6109208330612710600a60010154856109119190610ea8565b61091b9190610e86565b610b85565b61092b838383610b85565b6109356001600555565b505050565b6001600160a01b0382166109905760405162461bcd60e51b815260206004820152601f60248201527f45524332303a206d696e7420746f20746865207a65726f2061646472657373006044820152606401610426565b80600260008282546109a29190610e6e565b90915550506001600160a01b038216600081815260208181526040808320805486019055518481527fddf252ad1be2c89b69c2b068fc378daa952ba7f163c4a11628f55a4df523b3ef910160405180910390a35050565b6001600160a01b038216610a595760405162461bcd60e51b815260206004820152602160248201527f45524332303a206275726e2066726f6d20746865207a65726f206164647265736044820152607360f81b6064820152608401610426565b6001600160a01b03821660009081526020819052604090205481811015610acd5760405162461bcd60e51b815260206004820152602260248201527f45524332303a206275726e20616d6f756e7420657863656564732062616c616e604482015261636560f01b6064820152608401610426565b6001600160a01b0383166000818152602081815260408083208686039055600280548790039055518581529192917fddf252ad1be2c89b69c2b068fc378daa952ba7f163c4a11628f55a4df523b3ef910160405180910390a3505050565b60026005541415610b7e5760405162461bcd60e51b815260206004820152601f60248201527f5265656e7472616e637947756172643a207265656e7472616e742063616c6c006044820152606401610426565b6002600555565b6001600160a01b038316610be95760405162461bcd60e51b815260206004820152602560248201527f45524332303a207472616e736665722066726f6d20746865207a65726f206164604482015264647265737360d81b6064820152608401610426565b6001600160a01b038216610c4b5760405162461bcd60e51b815260206004820152602360248201527f45524332303a207472616e7366657220746f20746865207a65726f206164647260448201526265737360e81b6064820152608401610426565b6001600160a01b03831660009081526020819052604090205481811015610cc35760405162461bcd60e51b815260206004820152602660248201527f45524332303a207472616e7366657220616d6f756e7420657863656564732062604482015265616c616e636560d01b6064820152608401610426565b6001600160a01b03848116600081815260208181526040808320878703905593871680835291849020805487019055925185815290927fddf252ad1be2c89b69c2b068fc378daa952ba7f163c4a11628f55a4df523b3ef910160405180910390a36107f8565b80356001600160a01b0381168114610d4057600080fd5b919050565b600060208284031215610d5757600080fd5b610d6082610d29565b9392505050565b60008060408385031215610d7a57600080fd5b610d8383610d29565b9150610d9160208401610d29565b90509250929050565b600080600060608486031215610daf57600080fd5b610db884610d29565b9250610dc660208501610d29565b9150604084013590509250925092565b60008060408385031215610de957600080fd5b610df283610d29565b946020939093013593505050565b600060208284031215610e1257600080fd5b5035919050565b600060208083528351808285015260005b81811015610e4657858101830151858201604001528201610e2a565b81811115610e58576000604083870101525b50601f01601f1916929092016040019392505050565b60008219821115610e8157610e81610f02565b500190565b600082610ea357634e487b7160e01b600052601260045260246000fd5b500490565b6000816000190483118215151615610ec257610ec2610f02565b500290565b600181811c90821680610edb57607f821691505b60208210811415610efc57634e487b7160e01b600052602260045260246000fd5b50919050565b634e487b7160e01b600052601160045260246000fdfea26469706673582212202c937ca145cb95e0bc70928c224814dcf6bed6593c5d1967b2e15508656485ad64736f6c63430008070033a2646970667358221220a0401175e945d48d56b0456fdd37ce8ece9384243691a8b94f34dd6fc1dd096164736f6c63430008070033",
  "linkReferences": {},
  "deployedLinkReferences": {}
}